:030000000200B546
:0C00B500787FE4F6D8FD7581200200C6BB
:0701E70000750805D508FDB5
:0101EE0022EE
:1001B000EF64014E7006C2CCD2CD8010EF64024EC7
:1001C0007006D2CCC2CD8004C2CCC2CDED64014C4D
:1001D0007005C2B1D2B022ED64024C7005D2B1C23A
:0701E000B022C2B1C2B0223F
:0300C30002000335
:10000300C0E0C083C082C0D075D000C006C007C0A6
:10001300BA43BA8090FE84E030E607E054BFF002B2
:1000230000A690FE84E030E53EE054DFF0300004AB
:10003300C200806F30010DC20190FE87E090000086
:10004300F0E0804090FE87E0FF900000E0FE04F0C7
:1000530074052EF582E43400F583EFF0900000E0A0
:100063006403703FF0803C90FE84E030E426E0546B
:10007300EFF0E030E10890FE8674FFF080259000F9
:1000830000E004F02405F582E43400F583E090FEFB
:1000930086F0800F90FE84E030E308E054F7F0D25E
:1000A30000D201D0BAD007D006D0D0D082D083D02E
:0200B300E03239
:1000C600C2CCC2CDC2B1C2B0E4F594F593F592F5B7
:1000D60091F596F595F5B2F5B1F5B4F5B3F5CAF522
:1000E600C975BA8090FE807481F090FE857430F0F8
:1000F60090FE84E4F090FE837478F0D2AFD200D202
:1001060001E4900000F0E02405F582E43400F58374
:10011600E090FE86F0E4FDFCFFFE807DD3900002B9
:10012600E09464900001E0648094804004E4F0A3CD
:10013600F0900002E004F07006900001E004F01276
:1001460001E7900007E0FF7E00900003EEF0A3EFCA
:10015600F0D39464748094804009900003E4F0A383
:100166007464F0C3900003E0648094805004E4F06B
:10017600A3F0900003E0FEA3E0FFC3900002E09F1F
:10018600EE6480F8900001E06480985012900005BB
:10019600E0FF7E00A3E0FD7C001201B0020122E434
:0A01A600FDFCFFFE1201B002012271
:00000001FF
